:020000040800F2
:1000000028D600203103000811650008BB560008FF
:10001000DD640008DD180008D99D0008000000001C
:100020000000000000000000000000007102000855
:100030000528000800000000CD020008C576000871
:100040004B0300084B0300084B0300084B03000858
:100050004B0300084B0300084B0300084B03000848
:100060004B0300084B0300084B0300084B03000838
:10007000E92400084B0300084B0300084B03000869
:100080004B0300084B0300084B0300084B03000818
:10009000E11800084B0300084B030008392800084A
:1000A0004B0300084B0300084B0300084B030008F8
:1000B000997700084B0300084B0300084B03000826
:1000C0004B0300084B0300084B0300084B030008D8
:1000D0004B030008497D00084B030008557D0008CC
:1000E0004B0300084B0300084B0300084B030008B8
:1000F0004B0300084B0300084B0300084B030008A8
:100100004B0300084B0300084B0300084B03000897
:100110004B0300084B0300084B0300084B03000887
:100120004B0300084B030008F52400084B030008AC
:100130004B0300084B0300084B0300084B03000867
:10014000111900084B0300084B030008196500084B
:100150004B0300084B030008012500084B0300086F
:100160004B0300084B0300084B0300084B03000837
:100170004B0300084B0300084B030008000000007D
:100180004B0300084B03000800F002F800F060F891
:100190000AA090E8000C82448344AAF10107DA45E2
:1001A00001D100F055F8AFF2090EBAE80F0013F0D4
:1001B000010F18BFFB1A43F00103184724CD0000BC
:1001C00044CD00000A444FF0000C10F8013B13F03E
:1001D000070408BF10F8014B1D1108BF10F8015BA0
:1001E000641E05D010F8016B641E01F8016BF9D193
:1001F00013F0080F1EBF10F8014BAD1C0C1B09D1EA
:100200006D1E58BF01F801CBFAD505E014F8016B5B
:1002100001F8016B6D1EF9D59142D6D370470000ED
:100220000023002400250026103A28BF78C1FBD8FF
:10023000520728BF30C148BF0B6070471FB50BF095
:10024000AFFF9DE8030000F073FF1FBD10B510BDA8
:1002500001F000F81146FFF7F1FF0BF0C9F801F0CB
:100260001EF803B4FFF7F2FF03BC01F04FF80000E3
:100270002C4B19680868B0E8F04F80F30988BFF389
:100280006F8F4FF0000080F311887047000000006E
:1002900008480068006880F308884FF0000080F389
:1002A000148862B661B6BFF34F8FBFF36F8F00DF64
:1002B00000BF00BF08ED00E0DFF80C00016841F46A
:1002C00070010160704700BF88ED00E0EFF3098026
:1002D000BFF36F8F134B1A681EF0100F08BF20ED8D
:1002E000108A20E9F04F106009B44FF0500080F3FD
:1002F0001188BFF34F8FBFF36F8F0BF033FD4FF0BB
:10030000000080F3118809BC19680868B0E8F04F54
:100310001EF0100F08BFB0EC108A80F30988BFF3FD
:100320006F8F70472C080020EFF3058070470000A6
:100330000948804709480047FEE7FEE7FEE7FEE779
:10034000FEE7FEE7FEE7FEE7FEE7FEE704480549B5
:10035000054A064B704700008977000889010008AC
:100360002896002028D6002028B6002028B6002095
:100370009FED1A1AF5EE000A40EE010ABDEEE00A02
:10038000F5EEC00A10EE100AF1EE10FA38BF401E6A
:1003900000EE100A1349F7EE001AB8EEC00A30EE6C
:1003A000C00ADFED0F0A20EE200AFCEEC00A10EEB4
:1003B000900AC0F3080000EE900A01EB8000F8EE0E
:1003C000600A90ED011A70EE600A90ED000A71EE7D
:1003D000E01A21EE800A00EE810A704783F9223E7E
:1003E000000000445CC50008B5EEC00AF1EE10FA4A
:1003F00007D2DFED1E0AB4EEE00AF1EE10FAA8BF54
:100400007047DFED1B0AB5EEC00A60EE200ABDEEB4
:10041000E01A11EE100AF1EE10FA38BF401E00EE9D
:10042000100A1549F7EE001AB8EEC00A30EEC00AFD
:10043000DFED100A60EE200ABCEEE00A10EE100AB2
:10044000C0F3080000EE100A01EB8000B8EE400A8D
:1004500090ED011A70EEC00A90ED000A71EEE01AFC
:1004600021EE800A00EE810A70470000CD024CB4F4
:1004700083F9223E000000445CC5000870B4058882
:100480000E884468D1F804C05368B54208D140884A
:100490004988884201BF11888D425188884203D023
:1004A00070BC6FF00200704705FB00F1880827D090
:1004B00094ED001ADCED000A94ED010ADCED011A5E
:1004C00031EE201AD4ED020A70EE211A9CED020AD8
:1004D00083ED001AC3ED011A94ED031ADCED031A43
:1004E00030EE800A401E71EE210A83ED020A04F10B
:1004F0001004C3ED030A03F110030CF1100CD7D163
:1005000011F0030030D0B0F1004F30D200282BDDC5
:10051000211F1B1FACF1040210F0010F0AD091ED56
:10052000010AD2ED010A091D121D30EE200A83EDE9
:10053000010A1B1D400817D091ED010AD2ED010AF6
:10054000401E30EE200A83ED010A91ED020AD2ED41
:10055000020A01F1080102F1080230EE200A83EDDF
:10056000020A03F10803E7D170BC00207047B4EC25
:10057000010A401EFCEC010A30EE200AA3EC010A3D
:10058000F5D1F1E701804280436070472DE9F34FD8
:1005900084B0049840680090486801900498B0F8CE
:1005A00000E04588DFEDFE0A00200290B0EE600A10
:1005B000AE4506D108884988884204BF7146864501
:1005C00004D06FF0020006B0BDE8F08F01985FEA3A
:1005D000010C18BFB7EE001A3DD000BFBEEB0C01F6
:1005E00017D0B1F1004F80F01F82002911DD021FEA
:1005F00011F0010F1CBFC2ED010A121D4B1006D0F5
:10060000C2ED010AC2ED020A08325B1EF8D100EB0E
:100610008100BCF10102A0EC011A19D0B2F1004F27
:1006200080F00882002A13DD031F12F0010F1CBFA7
:10063000C3ED010A1B1D511008D000BFC3ED010A14
:10064000C3ED020A491E03F10803F7D100EB820053
:10065000BCF1010CC2D14FF000080395002D14BF6E
:10066000B0EE602A002000F0BF8100BF009908FBB7
:1006700005F001EB800B0199DBED002A01EB800016
:100680000346F0EE421AC64552D9AEEB0802ABEB78
:10069000850112F0010F17D001EB850191ED000AE1
:1006A000B5EEC00AF1EE10FA07DDB4EEE10AF1EEA4
:1006B00010FA09DDF0EE401A06E0B1EE400AF4EE61
:1006C000C01AF1EE10FAF5D3521031D001EB850CBF
:1006D0009CED000AB5EEC00AF1EE10FA05DDB4EEAD
:1006E000E10AF1EE10FA09DD06E0B1EE400AF4EE9F
:1006F000C01AF1EE10FA01D2F0EE401A01EBC5017A
:1007000091ED000AB5EEC00AF1EE10FA05DDB4EE87
:10071000E10AF1EE10FA09DD06E0B1EE400AF4EE6E
:10072000C01AF1EE10FA01D2F0EE401A521ECDD1ED
:10073000F5EEC01AF1EE10FA00F07381F5EEC02A62
:100740000126F1EE10FA0099D4BFB1EE620AB0EEC4
:10075000620AB4EE610AF1EE10FA1CBFAEEB0802B9
:10076000B2F1010C47D005FB08F201EB820292EDD9
:10077000001A00BFB0EE410A05FB06F4B5EEC00A50
:1007800000EB8404F1EE10FACCBFF0EE400AF1EE7B
:10079000400AF4EE610AF1EE10FA28D1B5EB080C2C
:1007A00011D0BCF1004F7DD2BCF1000F0BDD00BFBA
:1007B00092ED000AD1ED000ABCF1010CE2EC010A55
:1007C000A1EC010AF4D129000ED0B1F1004F6AD298
:1007D000002909DD94ED000AD0ED000A491EE4EC81
:1007E000010AA0EC010AF5D1012002900BE0761C71
:1007F000BCF1010CBED10298012804D0F5EEC02A4C
:10080000F1EE10FA7ED09BED000AB5EB08009A4697
:100810005946064622D0B0F1004F74D200281DDDA3
:10082000091F10F0010F06D0F0EE400A80EEA01A6A
:1008300081ED011A091D401010D000BFD1ED010A51
:10084000401E80EE801A81ED011A91ED021AC1EE70
:10085000000AC1ED020A01F10801EFD1280026D0FB
:10086000B0F1004F7ED2002821DDAAF1040110F082
:10087000010F06D0D1ED010A80EE801A81ED011A38
:10088000091D401013D000BFD1ED010A401E80EEBB
:10089000801A81ED011AD1ED020A80EE801A81EDF5
:1008A000021A01E0CBE0D6E001F10801ECD1DDE96C
:1008B00000124FF000095FEA0E0773D0C14504BF74
:1008C00001EB860102EB850274D091ED000ADC4653
:1008D0005046331E35D01C46B6F1004F7ED2002C58
:1008E0002FDD0B1FABF1040C16F0010F0FD0F0EE53
:1008F000400ADCED011AB0EE601A00EEE11A83ED59
:10090000011A01E08DE0B1E01B1D0CF1040C741024
:1009100015D000BFD3ED010A9CED011A40EE410A4B
:10092000C3ED010AD3ED020A9CED021A0CF1080C8A
:1009300040EE410AC3ED020A0833641EEAD101EB1E
:1009400086012B0036D0B3F1004F72D2002B31DD7F
:10095000A2F1040CAAF1040013F0010F0CD0DCED9D
:10096000010A00E08BE090ED011A001D40EE410A03
:10097000CCED010A0CF1040C5C1019D0DCED010A7D
:1009800090ED011A40EE410ACCED010ADCED020ABD
:1009900090ED021A083040EE410ACCED020A03E065
:1009A000000000000DE005E0641E0CF1080CE5D12C
:1009B00002EB830201EB88017F1E09F101097FF43C
:1009C0007DAF009808F10108001D00900398401EBB
:1009D00003907FF44BAE0299012900E058E004BF78
:1009E00006B0BDE8F08F00BFB5EEC00AF1EE10FA18
:1009F0007FF4E9AD04990EFB05F3002B4A684FF034
:100A000000010BD902EB810C9CED000AB5EEC00A87
:100A1000F1EE10FA02D1491C8B42F3D88B427FF4DD
:100A2000D2AD6FF00400CEE5E0EC010A491EFBD127
:100A3000EFE538E0E0EC010A521EFBD108E692ED4A
:100A4000000AD1ED000ABCF1010CE2EC010AA1ECB4
:100A5000010AF4D1B7E694ED000AD0ED000A491E70
:100A6000E4EC010AA0EC010AF5D1BDE6D1ED000AE3
:100A7000401E80EE801AA1EC011AF7D1EEE6D3ED0C
:100A8000000A401E80EE801AA3EC011AF7D10EE78F
:100A9000BCEC011AD1ED000A5B1E40EE410AE1EC0C
:100AA000010AF5D14DE7B0EC011AD2ED000A5B1E48
:100AB00040EE410AE2EC010AF5D17BE72DE9F04F67
:100AC00082B0466853680193058847884B880020A8
:100AD00000900888874201BFB2F800C0654552887F
:100AE00093421EBF6FF0020002B0BDE8F08F9FED91
:100AF000412A4FEA970EC7F3400B00BFDDE9000221
:100B000002EB800A4A6898464FF00009B0EE420AAC
:100B1000B4465FEA0E0025D092ED001ADCED001A13
:100B200002EB8302DCED010A01EE810A92ED001A6C
:100B300002EB8302401ED2ED001A02EB830200EEAC
:100B4000810A9CED021ADCED030A00040CF1100C82
:100B5000000C01EE210A92ED001A02EB830200EE76
:100B6000810AD9D117F0030026D0ACF10404A2EB1E
:100B7000830210F0010F08D002EB8302D4ED010ACA
:100B800092ED001A241D00EE810A5FEA0B0013D0DB
:100B900002EB830CD4ED010A9CED001A02EBC302B8
:100BA000401E00EE810AD4ED020A92ED001A04F113
:100BB000080400EE810AEBD109F10100AAEC010A58
:100BC0001FFA80F9486800EB8902A8F101001FFABA
:100BD00080F8B8F1000F99D1009806EB8706184409
:100BE00080B20090681E05042D0C87D102B0002051
:100BF000BDE8F08F0000000070B405880E884468DE
:100C0000D1F804C05368B54208D140884988884269
:100C100001BF11888D425188884203D070BC6FF0AB
:100C20000200704705FB00F1880827D094ED001AF8
:100C3000DCED000A94ED010ADCED011A31EE601AD8
:100C4000D4ED020A70EE611A9CED020A83ED001ADF
:100C5000C3ED011A94ED031ADCED031A30EEC00A5D
:100C6000401E71EE610A83ED020A04F11004C3ED27
:100C7000030A03F110030CF1100CD7D111F003009B
:100C800030D0B0F1004F30D200282BDD211F1B1FC8
:100C9000ACF1040210F0010F0AD091ED010AD2ED7F
:100CA000010A091D121D30EE600A83ED010A1B1DA9
:100CB000400817D091ED010AD2ED010A401E30EE36
:100CC000600A83ED010A91ED020AD2ED020A01F1F8
:100CD000080102F1080230EE600A83ED020A03F116
:100CE0000803E7D170BC00207047B4EC010A401E35
:100CF000FCEC010A30EE600AA3EC010AF5D1F1E741
:100D00002DE9F04F02884768B0F802804888D1F892
:100D1000049082B04FF0000A1646824207BF09884D
:100D200088456FF0020002B018BFBDE8F08F4FEAAF
:100D3000980B02EB42000190C8F34000CDF8000090
:100D400009EB8A01BBF1000F33D0019801EB820C53
:100D500001EB80043B46E64601EBC2054FEA0B007F
:100D600093ED000A401E81ED000A93ED010A01EBAC
:100D700002118CED000A93ED020A0CEB021C85EDCA
:100D8000000A93ED030A05EB021584ED000A04EB5B
:100D9000021403F11003E3D10EEB820000EB82009A
:100DA00000EB8201ABF10100504307EB0B1701EBA5
:100DB000001118F0030C21D03B1FA1EB82011CF0A5
:100DC000010F06D093ED010A01EB82011B1D81ED9D
:100DD000000A009880B100BF93ED010A01EB820484
:100DE00001EBC20184ED000A93ED020A401E81ED81
:100DF000000A03F10803EFD107EB8C070AF10100A9
:100E00001FFA80FA701E0604360C99D102B0002039
:100E1000BDE8F08F70B5064600F06EF9056806F182
:100E20000B0020F00704B4429CBF002070BD2B468D
:100E30006A68BAB11068A04210D304F10801884270
:100E40003CBF5068586007D3516810194160116861
:100E5000091B016058601460101D70BD1346526874
:100E6000002AE7D12146284600F04EF90028DED1BD
:100E700070BD53EA020C00F069802DE9F04B4FF091
:100E80000006002B1FBFB3FA83F503FA05F424FA1A
:100E900005F65E4012BF1643B2FA82F502FA05F477
:100EA000C5F120051EBF22FA05FC44EA0C042035DA
:100EB00056EA044C4FEA144418BF641C4FF0000873
:100EC0004FF00009904271EB030C39D3002919BF90
:100ED000B1FA81F701FA07F6B0FA80F700FA07F6DF
:100EE000C7F120071EBF20FA07FC46EA0C06203790
:100EF000B6FBF4FCA7EB0507103F07F01F0BCBF187
:100F000020060CFA0BFB2CFA06F644BFB34600266B
:100F1000202FA4BF5E464FF0000B5BEA060C08BF13
:100F20004FF0010B19EB0B09ABFB027C48EB0608F9
:100F3000C01B06FB02CC0BFB03CC71EB0C01C1E721
:100F40000B46024641464846BDE8F08B13B54FF0CC
:100F500000004FF00001AFF30080BDE81C40704777
:100F6000032A40F2308010F0030C00F0158011F8D5
:100F7000013BBCF1020F624498BF11F801CB00F8AD
:100F8000013B38BF11F8013BA2F1040298BF00F801
:100F900001CB38BF00F8013B11F0030300F02580BE
:100FA000083AC0F0088051F8043B083A51F804CBE5
:100FB000A0E80810F5E7121D5CBF51F8043B40F8AB
:100FC000043BAFF30080D20724BF11F8013B11F8B6
:100FD00001CB48BF11F8012B24BF00F8013B00F8FA
:100FE00001CB48BF00F8012B704710B5203AC0F084
:100FF0000B80B1E81850203AA0E81850B1E818501A
:10100000A0E81850BFF4F5AF5FEA027C24BFB1E856
:101010001850A0E8185044BF18C918C0BDE81040C7
:101020005FEA827C24BF51F8043B40F8043B08BFD0
:101030007047D20728BF31F8023B48BF11F8012B97
:1010400028BF20F8023B48BF00F8012B704702F090
:10105000FF0343EA032242EA024200F002B84FF0E3
:1010600000020429C0F0128010F0030C00F01B8075
:10107000CCF1040CBCF1020F18BF00F8012BA8BF83
:1010800020F8022BA1EB0C0100F00DB85FEAC17C47
:1010900024BF00F8012B00F8012B48BF00F8012BFA
:1010A00070474FF0000200B513469446964620392B
:1010B00022BFA0E80C50A0E80C50B1F12001BFF411
:1010C000F7AF090728BFA0E80C5048BF0CC05DF877
:1010D00004EB890028BF40F8042B08BF704748BFC5
:1010E00020F8022B11F0804F18BF00F8012B704739
:1010F000704770477047000000487047D095002047
:10110000704770477047704738B504460A4600205C
:101110006946AFF30080002808BF38BD0246009939
:10112000204600F075F8012038BD012000F08AB893
:10113000F8B5AFF30080054600200C46102000BF34
:101140000646A819A0420DD9324669460020AFF3E1
:101150000080070008BF00F075F80098A04218BF93
:101160000546C419FFF7C8FF05600746F01D20F0CB
:1011700007004619284600F00AF8B44208BFF8BD37
:10118000A21B31463868BDE8F84000F041B80021A4
:101190000160C0E9011070471020704770B5044627
:1011A000051FFFF7A9FF0068002C14BF446870BD3D
:1011B000002C18BFAC423CBF20466468F8D30168DD
:1011C0000A18AA4218BF456003D12A68054611448F
:1011D000016028684119A1421CBF6C6070BD616844
:1011E000696021680844286070BD10B500F00CF8F3
:1011F000006810BD10B5044600F006F8046010BD8C
:1012000000487047C895002000487047C8950020E6
:10121000034640688C46002818BF88423CBF0346FE
:101220004068F8D318681844884207D00CF10300CE
:1012300020F00700001D411A521A0146081D0A60DD
:10124000FFF7ACBF10B500F039F8BDE8104000F072
:101250002FB870477546FFF7D3FFAE4605006946C5
:10126000534620F00700854618B020B5FFF76EF80A
:10127000BDE820404FF000064FF000074FF0000897
:101280004FF0000B21F00701AC46ACE8C009ACE818
:10129000C009ACE8C009ACE8C0098D46704710B57C
:1012A0000446AFF300802046BDE81040FEF7D9BFEA
:1012B000002801D000F02AB87047000010B50128BE
:1012C00005D0002103A000F027F8012010BD09A1DE
:1012D000F8E7000053494752544D454D3A204F75A9
:1012E00074206F662068656170206D656D6F72791E
:1012F000000000003A2048656170206D656D6F72D6
:101300007920636F727275707465640001491820EA
:10131000ABBEFEE72600020070B505460C460A206B
:1013200000E06D1C00F011F835B128780028F8D1E4
:1013300002E0641C00F009F814B120780028F8D10C
:10134000BDE870400A20AFF3008008B569468DF80B
:1013500000000320ABBE08BD01221021014802F0AD
:1013600073B900000000024000221021014802F081
:101370006BB90000000002402DE9F041FFF7F4FFD7
:10138000802000F0FFF9552000F0FCF9552000F016
:10139000F9F9FFF7E1FF962001F040FAFFF7E4FFCB
:1013A000802000F0EFF9552000F0ECF9552000F016
:1013B000E9F9FFF7D1FF962001F030FAFFF7D4FFEB
:1013C000B6217E2000F024FAFFF7C6FF502001F07E
:1013D0001AFAFFF7C9FF802000F0D4F9552000F079
:1013E000D1F9552000F0CEF9FFF7B6FF962001F0B5
:1013F00015FAFFF7B9FF802000F0C4F9552000F07E
:10140000C1F9552000F0BEF90446FFF7A5FF96206C
:1014100001F004FA1E2C02D0FF20BDE8F081002468
:10142000174FFFF7A1FF04EB4405EE19785D7178C3
:1014300000F0EEF9FFF790FF962001F0EFF9FFF7CB
:1014400093FF785D40F0800000F09CF9552000F09B
:1014500099F9552000F096F90546FFF77DFF962093
:1014600001F0DCF97078A84204D004EB4400384461
:101470008078D2E7641CE4B2062CD2D30020CCE7FB
:101480000C06002001221146014802F0DDB80000E0
:101490000004024000220121014802F0D5B80000FA
:1014A00000040240F8B500200090FFF7F3FF694602
:1014B000002000F05BF9FFF7E5FF962001F0AEF9A0
:1014C000FFF7E8FF6946002000F050F9FFF7DAFF68
:1014D000962001F0A3F9FFF7DDFFB621142000F0FC
:1014E00097F9FFF7CFFF502001F08DF9FFF7D2FFFA
:1014F0006946002000F03AF9FFF7C4FF962001F09A
:101500008DF9FFF7C7FF6946002000F02FF9FFF7BC
:10151000B9FF962001F082F99DF800000F2801D054
:10152000FF20F8BD0024154FFFF7B4FF04EB44057E
:10153000EE19785D717800F06BF9FFF7A3FF962044
:1015400001F06CF9FFF7A6FF785D694600F00EF92F
:10155000FFF798FF962001F061F970789DF8001070
:10156000884204D004EB440038448078F8BD641C01
:10157000E4B2062CD8D30020F8BD00001E060020DF
:101580007CB50446002000900190FFF7EDFE92200C
:1015900000F0F8F806226946122000F0D5F8FFF7AF
:1015A000DBFE9DF800009DF8011040EA012000B22A
:1015B00020849DF802109DF8032041EA022109B21F
:1015C00061849DF804209DF8053042EA032212B29E
:1015D000A28400EE100A454DF8EEC00A95ED000A0F
:1015E00060EE800AC4ED010A00EE901AF8EEE00AFF
:1015F00060EE800AC4ED020A00EE902AF8EEE00ADE
:1016000020EE800A84ED030AFFF7AEFEA22000F070
:10161000B9F802226946222000F096F8FFF79CFEF6
:101620009DF800009DF80110C00040EA5110A0850F
:10163000B0F5806F02DBA0F50060A085B4F92C0046
:10164000B4EE001A00EE100AF8EEC00AB3EE070A74
:1016500000EE810A84ED070AFFF71CFF08226946A5
:10166000002000F071F8FFF70DFF9DF800000F2833
:1016700014D19DF802009DF8031040EA0120E08497
:101680009DF804009DF8051040EA012020859DF892
:1016900006009DF8071040EA01206085B4F9260095
:1016A000D4ED0C0A00EE100AB8EEC01A95ED010A4E
:1016B00050EE010AC4ED040AB4F92800D4ED0D0A75
:1016C00001EE100AB8EEC11A50EE010AC4ED050A87
:1016D000B4F92A00D4ED0E0A01EE100AB8EEC11AD0
:1016E00050EE010AC4ED060A7CBD0000040600208D
:1016F00070B50024FFF740FE40EA0405FFF7D2FE74
:1017000040EA0504022001F07EF8002CF2D1BDE889
:101710007040014800F002B8A80F00209FED070AB2
:1017200080ED0C0A9FED060A80ED0D0A9FED050A7B
:1017300080ED0E0A0121017070470000910115B97A
:10174000EA7CA7BBFE80893A70B50D46144640F08E
:10175000800000F017F806E0552000F013F805F8B7
:10176000010B641EE4B2002CF6D170BD10B50C461E
:1017700040F0800000F006F8552000F003F82070DB
:1017800010BD000001B582B0002001904FF47A70C6
:101790000090012301AA02A9024803F0F1F89DF884
:1017A00004000EBDF815002010B5F0EE400A9FEDC4
:1017B000130A134809F0F4FC1148124A90ED0A0A82
:1017C00010EE101A914204DD9FED0F0A80ED0A0A17
:1017D00008E0B5EEC00AF1EE10FA03D29FED0B0A55
:1017E00080ED0A0A90ED0A0ABDE81040BCEEC00A7E
:1017F00010EE100A80B203F061BF0000000020422A
:10180000980D00200000FA440000FA440000000097
:1018100010B50C46FFF7B6FF2046BDE81040FFF7B5
:10182000B1BF000000B58BB0282101A8FFF739FC3B
:1018300001210991002007900891019002900390E6
:101840000490069005900A9001A9104801F0B8F89C
:1018500008B100F0F4FF0D4801F00FFC02210B4825
:1018600001F022F80E2006900A9001A9084801F024
:10187000A7F808B100F0E3FF054801F0FEFB0221E4
:10188000034801F011F80BB000BD0000A8150020BE
:10189000D015002008B5242000900948094B0168A4
:1018A000A3F12402091D06F05BFA642000900648AB
:1018B000064B0168A3F16402091D06F051FA08BD48
:1018C000241700202D110020E016002070100020A9
:1018D0000021014803F024BC98160020FEE7000018
:1018E000014801F079B90000A815002070B5044640
:1018F0000D46064A2946204605F09AFC2946204610
:10190000BDE87040014A2C3205F092BC6006002010
:10191000014801F061B90000D015002010B508465B
:101920002DED028B01781F4C01F00F01DFED1E8AB7
:101930009FED1E8A012916D0022922D0032928D022
:1019400004290DD104F1A80100F0E4FE94ED310A60
:1019500030EE280A84ED310A20EE080A84ED360ABA
:10196000BDEC028B10BD0F4900F0D4FE94ED070AC8
:1019700030EE280A84ED070A20EE080A84ED0C0AEE
:10198000EEE7BDEC028B0749BDE81040383100F0AE
:10199000C1BEBDEC028B0349BDE81040703100F0C0
:1019A000B9BE0000B8060020DC0F4940DF2E6542BA
:1019B0002DED028B4FF4167009F03DFD012000F073
:1019C00087FE0A2009F037FD022000F081FE0A2080
:1019D00009F031FD032000F07BFE0A2009F02BFD09
:1019E000042000F075FE0A2009F025FD644F9FEDEC
:1019F000658AA126644C654D09F032FDF87A01280C
:101A00004CD0B0EE482AF0EE481AB0EE481AF0EE8C
:101A1000480AB0EE480A012000F0CAFDB0EE482A9C
:101A2000F0EE481AB0EE481AF0EE480AB0EE480A56
:101A3000022000F0BDFD012009F0FDFCB0EE482AB7
:101A4000F0EE481AB0EE481AF0EE480AB0EE480A36
:101A5000032000F0ADFDB0EE482AF0EE481AB0EEDB
:101A6000481AF0EE480AB0EE480A042000F0A0FD43
:101A700026774FF0000884F8208084F821804248BF
:101A800008F02AF92E7785F8208085F821803F48D4
:101A900008F022F9012009F0CEFCADE7DFF8F08074
:101AA000F0EE481AB0EE481A98ED1C2AF0EE480AFB
:101AB000B0EE480A012000F07BFD98ED1D2AF0EE03
:101AC000481AB0EE481AF0EE480AB0EE480A022072
:101AD00000F06EFD012009F0AEFCDFF8B880F0EEFA
:101AE000481AB0EE481A98ED1D2AF0EE480AB0EEFA
:101AF000480A032000F05CFD98ED1C2AF0EE481A1D
:101B0000B0EE481AF0EE480AB0EE480A042000F0A1
:101B10004FFD21489FED210ADFF88480D0ED100AA7
:101B200060EE800AFDEEE00A10EE900A00B2A8F81E
:101B30000E001C49D1ED100A20EE800ABDEEC00A4D
:101B400010EE101A09B2A8F80010091A01EBD171B1
:101B50004910A8F80C10267784F82000000A84F8B1
:101B60002100094808F0B8F82E77B8F8000085F889
:101B70002000000A85F82100044808F0ADF889E744
:101B8000FC07002000000000AC050020D00500206C
:101B900028010020A80100204C0000203D4AA64357
:101BA000000000209409002004284FF00000704736
:101BB0000020704710B500220449054806F010FBCC
:101BC0000449034806F0FEFA002010BD9C86002060
:101BD000C07900209C7E002010B50446204604F009
:101BE0007FFC2146034806F0EDFA024806F0BEFAF3
:101BF000002010BDC07900200020704770B5044659
:101C00002DED028B91ED068AF0EE080AB0EE480A3F
:101C100008F052FFB84DD5ED010A60EE208AF0EED3
:101C2000000AB0EE480A08F047FFD5ED020A40EE80
:101C3000808A95ED030A40EE088A95ED040A38EE95
:101C4000800A84ED160AF0EE080AB0EE480A08F0A1
:101C500033FF1835D5ED010A60EE208AF0EE000A58
:101C6000B0EE480A08F028FFD5ED020A40EE808A5F
:101C700095ED030A40EE088A95ED040A38EE800AD5
:101C800084ED170AF0EE080AB0EE480A08F014FFD7
:101C90001835D5ED010A60EE208AF0EE000AB0EEAC
:101CA000480A08F009FFD5ED020A40EE808A95ED5A
:101CB000030A40EE088A95ED040A38EE800A84EDA6
:101CC000180AF0EE080AB0EE480A08F0F5FE1835DA
:101CD000D5ED010A60EE208AF0EE000AB0EE480A67
:101CE00008F0EAFED5ED020A40EE808A95ED030A7F
:101CF00040EE088A95ED040A38EE800A84ED190A50
:101D0000F0EE080AB0EE480A08F0D6FE1835D5ED18
:101D1000010A60EE208AF0EE000AB0EE480A08F0F0
:101D2000CBFED5ED020A40EE808A95ED030A40EE27
:101D3000088A95ED040A38EE800A84ED1A0AF0EE5E
:101D4000080AB0EE480A08F0B7FE1835D5ED010ACA
:101D500060EE208AF0EE000AB0EE480A08F0ACFE11
:101D6000D5ED020A40EE808A95ED030A40EE088A1E
:101D700095ED040A38EE800A84ED1B0AF0EE080A9D
:101D8000B0EE480A08F098FE1835D5ED010A60EE6D
:101D9000208AF0EE000AB0EE480A08F08DFED5ED7C
:101DA000020A40EE808A95ED030A40EE088A95ED1E
:101DB000040A38EE800A84ED1C0AF0EE080AB0EE40
:101DC000480A08F079FE1835D5ED010A60EE208A40
:101DD000F0EE000AB0EE480A08F06EFED5ED020AF9
:101DE00040EE808A95ED030A40EE088A95ED040ADC
:101DF00038EE800A84ED1D0AF0EE080AB0EE480ABB
:101E000008F05AFE1835D5ED010A60EE208AF0EE92
:101E1000000AB0EE480A08F04FFED5ED020A40EE87
:101E2000808A95ED030A40EE088A95ED040A38EEA3
:101E3000800A84ED1E0AF0EE080AB0EE480A08F0A7
:101E40003BFE1835D5ED010A60EE208AF0EE000A5F
:101E5000B0EE480A08F030FED5ED020A40EE808A66
:101E600095ED030A40EE088A95ED040A38EE800AE3
:101E700084ED1F0AF0EE080AB0EE480A08F01CFED6
:101E80001835D5ED010A60EE208AF0EE000AB0EEBA
:101E9000480A08F011FED5ED020A40EE808A95ED61
:101EA000030A40EE088A95ED040A38EE800A84EDB4
:101EB000200AF0EE080AB0EE480A08F0FDFD1835D9
:101EC000D5ED010A60EE208AF0EE000AB0EE480A75
:101ED00008F0F2FDD5ED020A40EE808A95ED030A86
:101EE00040EE088A95ED040A38EE800A84ED210A56
:101EF000BDEC028B70BD000028020020D0ED220A4C
:101F000090ED160A20EE800A80ED280A90ED231A43
:101F1000D0ED171A61EE213AC0ED293AD0ED241A1E
:101F200090ED182A21EE824A80ED2A4A90ED252A6A
:101F3000D0ED192A62EE224AC0ED2B4AD0ED262AB6
:101F400090ED1A3A22EE835A80ED2C5A90ED273A02
:101F5000D0ED1B5A63EE255AC0ED2D5A30EE230A00
:101F600030EE040A30EE240A30EE050A30EE250A7F
:101F700080ED130A10EE101A2A4A914204DDB0EEE9
:101F8000080A80ED130A08E010EE101A11F17F5FC5
:101F900003D9B8EE080A80ED130A90ED1C0A20EE72
:101FA000800A80ED2E0AD0ED1D0A61EE200AC0EDF8
:101FB0002F0A90ED1E1A21EE811A80ED301AD0ED15
:101FC0001F1A62EE211AC0ED311A90ED202A22EE7E
:101FD000822A80ED322AD0ED212A63EE222AC0ED3A
:101FE000332A30EE200A30EE010A30EE210A30EEBC
:101FF000020A30EE220A80ED110A10EE101A0A4A87
:10200000914204DDB3EE0E0A80ED110A704710EE26
:10201000101A064A9142F9D9BBEE0E0A80ED110A58
:1020200070470000000040400000F0410000F0C197
:1020300090ED0D0ADFED150A30EEC00A80ED220AA0
:1020400090ED0F0AB1EE400A80ED230A104990EDA1
:102050000B0AD1ED070A30EEC00A80ED240A90ED9C
:102060000C0AD1ED040A30EEC00A80ED250A90ED8D
:10207000080ADFED080A30EEC00A80ED260A90ED6E
:10208000090AB1EE400A80ED270A70470AD723BD3E
:10209000100000200AD7233D224A92ED090A80ED64
:1020A000080AD2ED0C0AC0ED090A80ED0A0A42784E
:1020B000DFED1D0A012A1FD091ED0E1A70EEC10A44
:1020C00030EEC00A80ED0D0A90ED0D0AD0ED0E0A3B
:1020D00030EE601ADFED150AC1EE201AC0ED0F1ABE
:1020E00080ED0E0A017802290FD09FED110A80EDD4
:1020F0000C0A80ED0B0A704791ED0E1A71EE600A22
:1021000030EEC00A80ED0D0ADEE70A4991ED030AC0
:1021100080ED0C0A90ED0B1A00EE201A80ED0B1AE0
:1021200070470000F00C0020DC0FC93F6F12033B2A
:1021300000000000100000202DED068B82B04FF053
:102140000008CDF80480D74A0121D74804F0F8FAF6
:10215000D548D44A0121503004F0F2FAD14AD2488D
:1021600018320121A03004F0EBFACE4ACE483032CA
:102170000121F03004F0E4FACA4A01214832CB4888
:1021800004F0DEFAC74AC94860320121503004F039
:10219000D7FAC44AC54878320121F03004F0D0FAA9
:1021A000DFF80CB39FEDC38AF6EE009A9FEDC2AA4A
:1021B000BD4EC54FDFF80493F1EE008ADFF800A3AF
:1021C000B9EE009ABF4DDC3EA7F13C0409F048F996
:1021D000019095ED000AB0EEC00A10EE100A5845C5
:1021E0000EDB99F80B0001280AD086F8008087F8EA
:1021F0000080A4F8048095ED020A84ED080A16E038
:1022000010EE100A584512DA99F80B0001280ED189
:10221000307810B9A088401CA080B4F90400B0F553
:10222000FA7F04DD022030703870A4F80480A648DC
:10223000DC3007F0E7FDA54807F0B0FEA3499A4857
:102240008039DC38FFF7DAFCA0499F48FFF7D6FC5D
:10225000B9F9060050B100EE100AB8EEC00ADFED81
:102260009C0A20EE200A84ED0E0A03E09FED990AF5
:1022700084ED0E0AA06BB0F17F5F04DDB7EE080AB3
:1022800084ED0E0A06E09449884203D9BFEE080A9D
:1022900084ED0E0AD4ED0E0A94ED040A30EEC01A55
:1022A00081EE080A84ED060AB0EEC01A11EE100A9B
:1022B000B0F17E5F02DAC4ED040A07E009F054FBD6
:1022C000D4ED040A40EE080AC4ED040A94ED040AB1
:1022D00084ED050A99F80B0001287CD0DFED7D0A1A
:1022E000C4ED070AB5EEC00AF1EE10FA01D00120E4
:1022F00020707A4890ED110AD0ED060A30EE600A9F
:1023000020EE290A20EE0A0A84ED030A6F49664886
:102310008039DC38FFF7C0FE6C496B48FFF7BCFE24
:1023200094ED040AB5EEC00AF1EE10FA14D120784B
:1023300090B196ED0D0A6A49B0EEC00A10EE100A8F
:10234000884209DC9FED630A84ED070A86ED0B0ADB
:1023500087ED0B0A84F800805C4953488039DC38EB
:10236000FFF766FE59495848FFF762FE4E48DC38D1
:10237000FFF7C4FD5448FFF7C1FD99F80A00012892
:102380000DD0B9F9000000EE100AF8EEC00A94ED85
:10239000080A9FED541A00EEC10A84ED080A42486B
:1023A000D5ED020A94ED080AA03008F0F9FE3F4886
:1023B000D5ED050A503808F0F3FE84ED0C0AD5ED92
:1023C000020A94ED080A394808F0EAFE3748D5EDCC
:1023D000050A503000E01CE008F0E2FE84ED0D0A32
:1023E000D6ED130A94ED0C1A70EEC10AC6ED100A70
:1023F00097ED131AB1EE411A31EE400A87ED100A3B
:1024000010EE100A4FF08141884209DDC7ED108AB5
:102410000CE0D4ED070A40EE080AC4ED070A61E7B4
:1024200010EE100A504501D987ED109A10EE900A6F
:10243000884202DDC6ED108A05E010EE900A504594
:1024400001D986ED109A96ED0D0AD7ED0D0ADFED54
:1024500021AA164870EE600AB0EE6A0AA03008F0B1
:102460009FFE84ED0B0A96ED110AB1EE400A86ED4F
:10247000110A0E48D5ED030AB0EE6A0AF03008F0F2
:102480008FFE84ED020A114907488039DC3807F0D5
:1024900051FE0E490C4807F06DFF022101A808F01B
:1024A000D2FF93E648030020700A0020B00B002002
:1024B000000050416F12033B0AD7A33DFC070020E8
:1024C000000080C0F00C00204C000020A80100207B
:1024D0000AD7233B000000000000C0BF60060020B8
:1024E0000AD7233D17B75139014800F053BE000009
:1024F00028180020014800F04DBE00006817002099
:10250000014800F047BE0000C81700200168CAB2A9
:10251000103A1823B2FBF3F2064B9B5CC3656FF3D2
:102520000901032A02D9091D816500E08165806DDA
:102530007047000054C5000810B5014600208A6AA3
:102540008B694FF0C074002B0ED0B3F5005F1AD02A
:1025500062B3012A2AD0022A28D0032A03D1C96AE9
:10256000C90100D5012010BD1AB1012A06D0022AE6
:10257000F9D1C96AC901F6D5012010BDC96AA142C5
:10258000FBD1012010BD52B1012A0AD0022A06D087
:10259000032AF7D1C96AA142F4D1012010BD01205C
:1025A00010BDC96AC901FBD5012010BD012010BDB5
:1025B00070B52DED048BB0EE608AF0EE418AB0EE7E
:1025C000619AF0EE429A401EC5B210209FED2A1A81
:1025D000DFED2A0A08F0C9FE294C60800C209FED2F
:1025E000291ADFED290AB0EE480A08F0BEFEA080E5
:1025F0009FED278A0C209FED251AF0EE480AB0EED9
:10260000680A08F0B2FE20810C20B1EE041AF0EE48
:10261000480AB0EE490A08F0A8FE60810C209FED40
:102620001D1ADFED1D0AB0EE690A08F09EFEE0807B
:102630001A49628805EBC50501EB8501130A01F80B
:102640001C3F4A70A28813098B701301228943EA48
:102650001223CB700A71628913094B71120142EA8D
:1026600010228A71C8711C39BDEC048B0846BDE884
:10267000704007F031BB0000DC0F4940DC0F49C05F
:102680000000002000004842000048C20000FA4359
:102690000000000000003442000034C21C0500208D
:1026A000401EC0B200EBC0020848FF2100EB8200D0
:1026B00000F81C1F41708170C170017141718171FE
:1026C000FD21C1711C3807F007BB00001C0500206C
:1026D000401EC0B200EBC0020848FF2100EB8200A0
:1026E00000F81C1F41708170C170017141718171CE
:1026F000FC21C1711C3807F0EFBA00001C05002056
:10270000818E491C89B28186C82902D90079FFF7D8
:10271000C7BF704770B505460C46287800F00F001B
:102720002070A16888425CD1287800096082A8786E
:10273000697840EA0120A082E8782979000140EA1E
:102740001110E0822979687901F00F0140EA012037
:1027500020830C21DFED230A9FED230A09F039F9CC
:1027600084ED090AA08A1021DFED200A9FED200ADE
:1027700009F02FF984ED070AE08A0C21DFED1D0A2C
:102780009FED1D0A09F025F984ED080AA87900EEED
:10279000100AB8EE400A84ED0A0AE87900EE100A41
:1027A000B8EE400A84ED0B0A94ED070ADFED130A38
:1027B00020EE200A84ED0C0A207C50B920781049C4
:1027C000401E00EB400001EBC00080ED050A012037
:1027D0002074608A002804D02046BDE87040FFF7CE
:1027E0008FBF70BD00003442000034C2DC0F49408E
:1027F000DC0F49C000004842000048C2DF2E65429D
:1028000098070020704770B5054600F025FF044684
:1028100000F022FF001BA842FAD370BD70B5054638
:1028200002F03EFF044602F03BFF001BA842FAD331
:1028300070BD08F015FEFCE7202000F011BE72B656
:10284000FEE70000F6EE000A60EE200A10EE100A25
:102850000649A1EB600000EE100A20EE801AF7EEA8
:10286000080A41EE400A20EE800A7047865A375F18
:1028700010B50B480168001D0468001D006808447D
:1028800000280BD00822074903F006F80549204626
:102890000422BDE81040103102F0FEBF10BD000060
:1028A000107AFF1FD608002090F82020012A07D0B8
:1028B000022A05D0416A41F480214162012070471B
:1028C000006842690A43426100207047F0B590F801
:1028D00020500468A468012D07D0022D05D0416A5C
:1028E00041F4802141620120F0BD04F0806504F0D4
:1028F0000066354301D1E5005BD5C4F30164022CC9
:1029000005D9416A41F4000141620120F0BD012571
:10291000A5401D608B684FF4C0759BB1CE6805EB78
:10292000041733434E6843EAC6030668F3514FF475
:10293000C273076803EB04130E69FE50097D012979
:1029400009D00DE00E88CB6805EB041743EA465327
:102950000668F351EBE70168CE5846F48076CE5016
:102960001179D379567941EA036193791B0443EADB
:10297000062319434FF4C676036806EB04169951F3
:102980001178D37841EA0361937852781B0443EAC3
:10299000022211434FF4C473026803EB0413D150B5
:1029A000006805EB0411425842F001024250002039
:1029B000F0BD416A41F4001141620120F0BD000008
:1029C00010B590F82020012A07D0022A05D0416ACC
:1029D00041F480214162012010BD3C4800F50070A7
:1029E000026842F001020260026822F47C52026036
:1029F00002684B6A42EA032202600A7D02F01F036A
:102A000001229A40C3699343C361A0F50070CB696A
:102A1000B3B9D0F80C329343C0F80C328C894B68B0
:102A200064F31F434C6900EBC404C4F840320C89C2
:102A30000B6864F31F434C6900EBC404C4F84432D0
:102A4000CB69012B16D1D0F80C321343C0F80C32ED
:102A50000C884B6864F31F434C6900EBC404C4F852
:102A600040320C89CB6864F31F434C6900EBC4040B
:102A7000C4F844328B697BB1D0F804321343C0F8F8
:102A800004320B6973B1D0F814321343C0F8143216
:102A9000096A01290CD010E0D0F804329343C0F841
:102AA0000432EEE7D0F814329343C0F81432EFE763
:102AB000D0F81C121143C0F81C12D0F8001221F0FB
:102AC0000101C0F80012002010BD000000640040A9
:102AD000704730B590F82040012C07D0022C05D06B
:102AE000416A41F480214162012030BD21B1046876
:102AF0002469A4075FD003E00468E468A40754D005
:102B00004FF4D874056804EB01142D5905F0040541
:102B10009560F5B305682D59ED08556005682C5989
:102B200004F00204D4604FF4DA74056804EB011475
:102B30002D5905F00F05156105682D59C5F30725B9
:102B4000956105682C59240C54614FF4DC720468BB
:102B500002EB0112A4581C700468A458240A5C708B
:102B60000468A458240C9C700468A258120EDA70F1
:102B70004FF4DE72046802EB0112A4581C71046861
:102B8000A458240A5C710468A458240C9C7104683D
:102B900000E016E0A258120EDA71B9B100680169BE
:102BA00041F020010161002030BD416A41F4001173
:102BB0004162012030BD416A41F4001141620120AF
:102BC00030BD05682D596D0D1560A7E70068C16817
:102BD00041F02001C160E6E72DE9F05F05460024E1
:102BE00028684669D0F804908768D0F80CA0D0F81F
:102BF00010B0D0F81880F10748D0F90714D001219F
:102C00008160B80703D5284600F064FA0CE0780725
:102C100002D54FF4006407E0380702D54FF4805422
:102C200002E0284600F055FAF80516D529684FF459
:102C300080708860B80503D5284600F04DFA0CE096
:102C4000780502D544F4005407E0380502D544F471
:102C5000804402E0284600F03EFAF80316D52968C1
:102C60004FF480308860B80303D5284600F036FA68
:102C70000CE0780302D544F4004407E0380302D5A1
:102C800044F4803402E0284600F027FA300707D5E4
:102C90005FEACA6004D544F4007429681020C86053
:102CA00070074FF0080707D55FEA0A7004D5286857
:102CB000C760284600F0B8F9B00706D52868C06894
:102CC000800702D0284600F0B1F9700607D55FEA08
:102CD000CB6004D544F48064296810200861B006F4
:102CE00007D55FEA0B7004D528680761284600F015
:102CF000C1F9F00606D528680069800702D0284689
:102D000000F0B9F9B00308D55FEAC96005D52968B4
:102D100010204860284600F0AFF9F00307D55FEABD
:102D2000097004D528684760284600F0D8F93004B7
:102D300046D55FEA497040D5F00504D55FEAC87012
:102D400001D044F00104B00504D55FEA887001D5D4
:102D500044F00204700504D55FEA487001D544F0E0
:102D60000404300529D518F0700F26D008F0700043
:102D7000402815D006DC102809D020280AD0302899
:102D800016D10AE050280ED0602811D10EE044F090
:102D900008040DE044F010040AE044F0200407E0C9
:102DA00044F0400404E044F0800401E044F4807402
:102DB0002868816921F070018161296804204860D8
:102DC000002C05D0686A204368622846FFF780FE21
:102DD000BDE8F09F70B50446002C03D094F82000A5
:102DE00010B104E0012070BD204600F09DF820687D
:102DF000016841F00101016000F02EFC0546052646
:102E00000CE000F029FC401B0A2807D9606A40F456
:102E10000030606284F82060012070BD2068406846
:102E2000C007EED02068016821F00201016000F0C7
:102E300013FC05460CE000F00FFC401B0A2807D9E4
:102E4000606A40F40030606284F82060012070BD48
:102E5000206840688007EED4207E01283FD020689B
:102E6000016821F080010160607E01283DD020686A
:102E7000016821F040010160A07E01283BD020685C
:102E8000016821F020010160E07E012839D020682E
:102E9000016841F010010160207F012837D02068CF
:102EA000016821F008010160607F012835D02068A9
:102EB000016821F004010160D4E902010843D4E96A
:102EC0000412114308436168491E08432168C86120
:102ED00000206062012084F82000002070BD20687E
:102EE000016841F080010160BEE72068016841F09F
:102EF00040010160C0E72068016841F020010160E5
:102F0000C2E72068016821F010010160C4E7206871
:102F1000016841F008010160C6E72068016841F0DE
:102F200004010160C8E700002DE9F04186B00446C5
:102F3000142101A8FEF7B5F8364B374ADFF8D080E8
:102F400018682168344C03260227401C10320025E3
:102F50004FF0090C414527D11860012807D11068AE
:102F600040F000701060106800F000700090206861
:102F700040F008002060206800F0080000900196F2
:102F8000029703950496CDF814C001A9234800F0D8
:102F900073FA00220521142000F0FCFB142000F03D
:102FA000EBFB06B0BDE8F081DFF874804145F8D155
:102FB000116841F080611160116801F08061009139
:102FC0001860012807D1106840F000701060106888
:102FD00000F000700090206840F00200206020683F
:102FE00000F0020000906020019002970395049683
:102FF000CDF814C001A90B4800F03EFA00220521CB
:10300000402000F0C7FB402000F0B6FBC9E70000FD
:10301000006400402408002030380240000C0240C8
:1030200000680040000402407047000010B50446EC
:103030000C4B0D4A00212046FFF74BFD0B49206841
:10304000884205D1BDE8104006490748FEF74EBC4E
:103050000749884205D1BDE8104002490248FEF701
:103060005DBC10BDF80500208C0F002000640040FE
:103070000068004070477047704770B5044694F888
:103080002000012805D0606A40F400206062012021
:1030900070BD022084F820002068016821F0010141
:1030A000016000F0D9FA05460DE000F0D5FA401BAA
:1030B0000A2808D9606A40F400306062052084F86C
:1030C0002000012070BD20684068C007EDD160621B
:1030D00070BD7047704770477047704770477047C2
:1030E0002DE9F0410446A76D00F0B6FA054694F8C4
:1030F00035000026022806D08020606584F8346000
:103100000120BDE8F0812068016821F0160101600E
:103110002068416921F080014161206C08B9A06CF0
:1031200020B12068016821F0080101602068016871
:1031300021F0010101600BE000F08EFA401B052830
:1031400006D9202034342062032060702670D8E72E
:1031500020680068C007EFD134343F2094F828106D
:103160008840B8600120607026700020C9E790F8A0
:103170003510022903D080214165012070470521C7
:1031800080F835100068016821F00101016000201D
:10319000704700002DE9F84304464FF00009CDF8D0
:1031A00000906F484FF416510068B0FBF1F7A56D21
:1031B0002E6894F85C00082202FA00F1314210D027
:1031C0002068016849070CD5016821F004010160FD
:1031D00094F85C0002FA00F1A960606D40F0010013
:1031E000606594F85C104FF0010808FA01F0304275
:1031F00008D021684969090604D5A860606D40F0CF
:103200000200606594F85C1004208840304208D0C9
:1032100021680968890704D5A860606D40F0040042
:10322000606594F85C1010208840304220D02168FE
:10323000096809071CD5A8602068016849030CD5F6
:103240000068000304D4216C91B1204688470FE048
:10325000A16C69B1204688470AE00168C90503D41A
:10326000016821F008010160216C09B120468847FE
:1032700094F85C102020884030424CD021680968C6
:10328000C90648D5A86094F8350005280BD02068F9
:103290000168490330D50068000328D4616C51B33C
:1032A0002046884737E02068016821F01601016058
:1032B0002068416921F080014161206C08B9A06C4F
:1032C00020B12068016821F00801016094F85C10C9
:1032D0003F208840A86084F8358084F83490216DC0
:1032E00000293BD001B02046BDE8F0430847E16B20
:1032F00009B1204688470EE00168C90507D4016876
:1033000021F01001016084F8358084F83490E16B7D
:1033100009B120468847606D00281FD0606DC00746
:1033200014D0052084F835002068016821F00101DF
:1033300001600098401C0090B84203D820680068E3
:10334000C007F6D184F8358084F83490E16C002908
:1033500004D001B02046BDE8F0430847BDE8F8833B
:10336000280800202DE9F041044600F075F90546D3
:103370005CB1022084F83500002684F834602068AF
:10338000016821F0010101600DE00120BDE8F0813C
:1033900000F062F9401B052805D920206065032054
:1033A00084F83500F2E720680068C007F0D1216892
:1033B0000A6820480240D4E901031843D4E90335E0
:1033C0002B43184363691843A3691843E3691843FF
:1033D000236A18431043626A042A03D1D4E90B23F9
:1033E0001A43104308602068406920F00700656AAE
:1033F00029460543012704290DD1A06A0543E06A47
:1034000048B12046FFF798F828B14020606584F85D
:1034100035700120BAE7206845612046FFF776F84D
:1034200094F85C203F2191408160666584F8357096
:103430000020ABE73F8010F070B5044600F00CF9B7
:103440000546601C02D004480078044400F004F9EA
:10345000401BA042FAD370BD9408002070470000C2
:1034600010B504490A68024202D00860FFF7F6FF6F
:1034700010BD0000143C01402DE9F84F0022DFF898
:103480009C914FF0010803274FF00F0C09F1040A3B
:10349000A9F1040B08FA02F50B682B40AB426ED180
:1034A0000C7904F00304012C01D0022C15D186689C
:1034B000540007FA04FE26EA0E06D1F80CE00EFAD4
:1034C00004FE4EEA060EC0F808E04468AC430D79ED
:1034D000C5F300159540254345600C79E443A407E6
:1034E00008D0C568540007FA04F6B5438E68A640B4
:1034F0002E43C6600C7904F00304022C11D1D408C9
:1035000000EB8406356A5407E40E0CFA04FE25EA43
:103510000E05D1F810E00EFA04FE4EEA050EC6F8CC
:1035200020E00568540007FA04F6B5430E7906F06A
:103530000306A6402E4306604C6814F4403F67D053
:10354000374C256845F480452560246804F48044A0
:103550000094344C22F003052E19D6F8085894072D
:103560004FEA147E0CFA0EF4A5432F4CA04201D171
:10357000002424E02D4CA04202D101241FE047E0AA
:103580002B4CA04201D1022419E02A4CA04201D1C7
:10359000032414E0284CA04201D104240FE0274C5E
:1035A000A04201D105240AE0254CA04201D1062405
:1035B00005E0244CA04201D1072400E0082404FACD
:1035C0000EF42C43C6F80848D9F800409C434D68D7
:1035D000ED0200D51C43C9F80040DAF800409C43D6
:1035E0004D68AD0200D51C43CAF80040DBF800402E
:1035F0009C434D68AD0300D51C43CBF80040074DFC
:10360000083D2C689C434E68F60300D51C432C6093
:10361000521C102AFFF43EAFBDE8F88F083C014071
:1036200044380240003001400000024000040240E3
:1036300000080240000C024000100240001402404A
:1036400000180240001C0240002A01D0816170472E
:1036500009048161704700000148806870470000DC
:103660009408002002488168027811448160704704
:103670009408002010B50B48016841F40071016006
:10368000016841F480610160016841F4807101606A
:10369000032000F09FF80F2000F006F800F050F82B
:1036A000002010BD003C024030B587B00546002424
:1036B0001F48016841F001010160006800F001004D
:1036C000009001A902A800F04BFE0598B0B100F0EF
:1036D0006BFE40001749B0FBF1F1491E16484FF050
:1036E0008042026040F2E732C2604160046184605F
:1036F000846101F081FA04461CB115E000F054FE2B
:10370000E8E70D4801F0C2FA04466CB91C2000F04D
:1037100033F8102D07D2002229461C2000F03AF879
:103720000648056000E0012407B0204630BD0000D7
:103730004038024040420F008818002098080020BE
:1037400082B00C48016841F480410160006800F4D7
:10375000804001900748001F016841F080510160DE
:10376000006800F08050019000220F21901E02B0EE
:1037700000F010B844380240002809DB00F01F02B6
:10378000012191404009800000F1E020C0F80011C3
:1037900070470000F0B40D460D4B1B68C3F30223C5
:1037A000C3F10704042C00D90424191D072901D2F0
:1037B000002300E0DB1E012606FA04F1491E294021
:1037C00099409E40761E16403143F0BC06F0EBBE99
:1037D0000CED00E000F00701054A10684FF6FF030A
:1037E000184040EA01200349084310607047000078
:1037F0000CED00E00000FA0570470068416200200F
:10380000704770B50368586A002907D09C6A00EBBE
:10381000144400204FF48275491E0AE040EA024039
:1038200098620DE005EB80069E5904EB1644401C9F
:10383000C0B28842F6D305EB810144EA02405850F9
:10384000002070BDD0F8080505F0B3B801EBC10247
:1038500000EB8202D0F80805D26C04F0D7BF01EB70
:10386000C10200EB8202D0F80805D2F88C2205F0E4
:103870003BB8D0F8080505F09EB80A0601F00F0124
:1038800001EBC10100EB810101D53C3101E001F503
:103890001F71006806F04EB870B504460B0601F0C3
:1038A0000F0000EBC00104EB81014FF001024FF06B
:1038B000000502D53C314A7002E001F51F714D70E0
:1038C000087094F8BC04012808D084F8BC2420684F
:1038D00005F0E8FC84F8BC54002070BD022070BDE7
:1038E00070B5044601F00F006268904201D90120D2
:1038F00070BD0B0601F00F0101EBC10104EB81016A
:103900004FF001024FF0000502D53C314A7002E051
:1039100001F51F714D708D70087094F8BC0401287A
:1039200008D084F8BC24206805F0B0FE84F8BC54AC
:10393000002070BD022070BD01F00F0101EBC1013C
:1039400000EB8100D0F89C0270472DE9F04104465D
:103950000F0601F00F0000EBC00104EB81014FF0F6
:1039600001064FF0000502D53C314E7002E001F532
:103970001F714D700870CA600B714A7802B10881DE
:10398000022B00D14D7194F8BC04012809D084F8B1
:10399000BC64206805F0D2FB284684F8BC54BDE81E
:1039A000F0810220FBE770B50D4605F00F0404EB33
:1039B000C40100EB810101F51F710A618B610023D5
:1039C0000B624B700C700369012B00D14A612A070E
:1039D00005D0027C006805F0B1FE002070BD027CBD
:1039E000006805F09DFDF8E770B504460D46616876
:1039F00005F00F00884201D9012070BD29064FF063
:103A000000064FF0010206D500EBC00104EB810176
:103A10003C314A7006E005EBC50104EB810101F57C
:103A20001F714E708A70087094F8BC04012807D08A
:103A300084F8BC24206805F055FE280702D007E072
:103A4000022070BD217C04F2C442206805F0F4FD20
:103A500084F8BC64002070BD70B50D4605F00F04FD
:103A600004EBC40100EB81013C310A618B6100234E
:103A70000B6201234B700C700369012B00D14A616A
:103A80002A0705D0027C006805F058FE002070BDB2
:103A9000027C006805F044FDF8E72DE9F84F044684
:103AA0002568284605F0F4FF00287ED1206806F03E
:103AB0001BF8002879D0D5F80808C0F30D20C4F809
:103AC000FC04206806F010F8800704D520684169DE
:103AD00001F002014161206806F006F8C10604F217
:103AE000C440009035D52068816921F010018161C2
:103AF0002F6A07F00F0000EBC00004EB800606F50C
:103B00001F76C7F34340022802D0062812D01BE0DC
:103B100047F6F070074217D0C7F30A121746284637
:103B2000316905F0E5FF306938443061306A384466
:103B3000306209E008222846009905F0D9FF306A72
:103B4000C7F30A11084430622068816941F010010E
:103B50008161206805F0C8FF00034FF0080B4FF0AB
:103B600000094FF001085ED50026206805F09BFF94
:103B7000824655E05FEACA704FD0F1B2206805F086
:103B8000ABFF0746F80707D005EB4610C0F8088BD7
:103B90003146204602F0EAFC380709D505EB46100D
:103BA000C0F808BB3146204600E0F9E102F0BAFC5B
:103BB000F80604D505EB46111020C1F8080BB8072C
:103BC0001CD56869000605D5D5F8040840F4806165
:103BD000C5F8041806EBC60004EB800000F51F7062
:103BE000C178012905D180F80390F1B2204600F098
:103BF000DDF905EB46110220C1F8080BB80604D523
:103C000005EB46102021C0F8081BB80405D505EBCC
:103C100046104FF40051C0F8081B761C4FEA5A0AB0
:103C2000BAF1000FA6D1206805F05EFF40036CD505
:103C3000206805F031FF8246002663E05FEACA7023
:103C40005DD0F1B2206805F035FF0746F80723D0B4
:103C500006F00F0108FA01F0D5F834188143C5F8D1
:103C6000341805EB4610C0F80889206901280FD1E7
:103C700006EBC60004EB8000D0E912211144C164B8
:103C800036B9606D20B920680121009A05F0D4FC96
:103C9000F1B22046FFF7DAFD380703D505EB4610F1
:103CA000C0F808B9F80604D505EB46111020C1F894
:103CB0000809780604D505EB46104021C0F808191C
:103CC000B80716D53146284605F0AEFE06EBC6000D
:103CD00004EB80003C30C178012905D180F80390C5
:103CE000F1B2204600F05EF905EB46110220C1F862
:103CF0000809380603D53146204602F0A9FC761C97
:103D00004FEA5A0ABAF1000F98D1206805F0ECFE8C
:103D1000002811DAD5F8040820F00101C5F80418CC
:103D200094F8F404012829D0204600F00EFA206807
:103D3000416901F000414161206805F0D5FE0005B0
:103D40000BD5D5F80808C00702D0204600F042FA8B
:103D50002068416901F400614161206805F0C4FEFA
:103D6000C00461D5D5F8040820F00101C5F8041895
:103D70001021206805F058FE002120E084F8F4941A
:103D800000212046FFF738FDD1E705EB411000F593
:103D900010604FF67F328260036823F400130360E3
:103DA000C0F80822D0F8002222F40012C0F8002245
:103DB000D0F8002242F00062C0F80022491C60687E
:103DC0008842E2D8D5F81C0840F00111C5F81C184B
:103DD000206B60B1D5F8840840F00B01C5F8841859
:103DE000D5F8440840F00B01C5F844180CE0D5F8AC
:103DF000140842F22B010843C5F81408D5F810083E
:103E000040F00B01C5F81018D5F8000820F4FE6149
:103E1000C5F80018217C2068009A05F00DFC206888
:103E2000416901F480514161206805F05DFE800424
:103E300015D5206805F0C4F9206805F019FEE0608A
:103E400000F0ACFA0146227B206805F0B7FE204660
:103E500000F064F92068416901F400514161206873
:103E600005F042FE000707D5204600F072F92068F1
:103E7000416901F008014161206805F035FE000646
:103E800015D5A86920F08001A96101260CE006EB98
:103E9000C60004EB800090F87F02012803D1F1B244
:103EA0002046FFF7EAFC761C6068B042EFD8206835
:103EB00005F01AFEC00220D5012616E005EB4610DB
:103EC000D0F8001906EBC60004EB800090F8402003
:103ED000012A09D1002907DA80F83F80F0B240F0CA
:103EE00080012046FFF7C9FC761C6068B042E5D827
:103EF0002068416901F480114161206805F0F4FDFA
:103F0000800230D5012026E005EB4011D1F8001BDE
:103F100000EBC00204EB820292F88032012B19D12F
:103F2000002917DA94F8FC3401F4803103F001031E
:103F300099420FD182F87F82A96941F08002AA617B
:103F40006969090606D4D5F8040840F40070C5F87C
:103F5000040803E0401C61688142D5D820684169AB
:103F600001F400114161206805F0BEFD400007D555
:103F70002046FFF767FC2068416901F080414161FC
:103F8000206805F0B1FD40070AD52068456868073C
:103F900002D52046FFF76DFC206841682943416047
:103FA000BDE8F88FD0F8080504F05ABDD0F8080530
:103FB00004F06BBD2DE9F0418AB00446002C05D019
:103FC000266894F8BD04002520B108E001200AB05D
:103FD000BDE8F08184F8BC54204600F05DF8032071
:103FE00084F8BD04F06BC00500D42561206805F09D
:103FF00091FA04F11001282288466846FCF7F5FF83
:1040000094E80F0005F0EAF8022718B184F8BD74AF
:104010000120DCE70021206805F089FD0021012650
:104020000DE001EBC10004EB80003C3046700170F4
:1040300001810571C56005618561491CC9B260686F
:104040008842EED800210DE001EBC10004EB8000B6
:1040500000F51F70457001700571C56005618561CF
:10406000491CC9B260688842EED828224146684699
:10407000FCF7BBFF94E80F0005F094F918B184F841
:10408000BD740120A3E784F8385084F8BD6420682B
:1040900005F07AF900209AE710B586B0044614219D
:1040A00001A8FCF7FEFF2068B0F1A04F2FD100213E
:1040B0001848026842F001020260006800F0010046
:1040C00000904FF4C0500190022002900391032011
:1040D00004900A20059001A90F48FFF7CDF90D487B
:1040E000001D016841F0800101600A481430016838
:1040F00041F480410160006800F48040009000229B
:1041000005214320FFF746FB4320FFF735FB06B0B0
:1041100010BD0000303802400000024070B5044677
:104120000125E06800280ED0022801D0FEF787FBA9
:104130002946D4F8080504F019FDD4F80805BDE8AF
:10414000704004F0CCBC0025F2E7D0F8080504F07C
:10415000F6BCD0F8080504F0FCBC10B5044694F891
:10416000BC0401280BD0012084F8BC0484F838106A
:10417000206805F00CFD002084F8BC0410BD02206E
:1041800010BDD0F8082500F2C441104604F0FABC76
:1041900010B50446206894F8BC14012906D001210A
:1041A00084F8BC14A16A012902D008E0022010BDE5
:1041B000A169012903D0816B41F4803181632068BA
:1041C00005F00AFC206805F0D1F8002084F8BC0452
:1041D00010BD000010B50446D4F8080504F014FD25
:1041E0002068D0F8001E41F00101C0F8001E206ACE
:1041F000002804D00248016841F00601016010BDAA
:1042000010ED00E0704700002DE9F04704460D4630
:10421000002C13D0DFF82891D9F80000EFB200F09D
:104220000700A8420CD289F80070D9F8000000F00D
:104230000700A84204D00120BDE8F0870120FBE779
:104240002068404E810712D5400703D5306840F4FE
:10425000E05030602078000703D5306840F46040BB
:1042600030603068A16820F0F000084330602078AA
:10427000C00731D0334960680839012808D00228C6
:104280000BD0032809D0096889070BD40120D3E794
:104290000968890306D40120CEE70968890101D4A1
:1042A0000120C9E7316821F0030101433160FFF7C4
:1042B000D3F9804641F2883A07E0FFF7CDF9A0EB49
:1042C0000800504501D90320B6E73068616800F066
:1042D0000C00B0EB810FF0D1D9F8000000F007001E
:1042E000A84209D989F80070D9F8000000F0070049
:1042F000A84201D001209FE72078400705D530680B
:10430000E16820F4E050084330602078000706D5CB
:104310003068216920F4604040EAC100306000F05C
:1043200063F83168084AC1F30311515CC84007497A
:10433000086007480068FFF7B7F900207CE7000035
:10434000003C0240083802403CC500082808002014
:104350009808002001490120C864704700004742C6
:104360000F2202600B4A136803F0030343601368D3
:1043700003F0F0038360136803F4E053C360126832
:1043800002F46042D20802610348006800F00700AE
:104390000860704708380240003C0240014800684D
:1043A000704700002808002000B5FFF7F7FF044918
:1043B0000968044AC1F38221515CC84000BD000075
:1043C000083802404CC5000800B5FFF7E7FF044974
:1043D0000968044AC1F34231515CC84000BD000085
:1043E000083802404CC5000810B51748006810F0A6
:1043F0000C01164816D0164B042912D0082911D1E9
:10440000114C241F216801F03F02216849020AD59E
:104410002068C0F38810A0FB03010023FCF729FDEE
:1044200009E0184610BD21680023C1F38811A1FBE3
:104430000001FCF71EFD2168C1F30141491C490040
:10444000B0FBF1F010BD0000083802400024F40079
:10445000001BB70010B505480068000605D5FFF73A
:10446000D1FE02498020891C087010BD0C38024022
:104470002DE9F84F0446002C13D02078DFF8A083F4
:10448000C007A8F1040556D008F104000168C1F383
:10449000810101290CD00068C0F38100022803D0FB
:1044A0000DE00120BDE8F88FD8F80000400206D5E5
:1044B000286880033FD5606870BB0120F2E7606820
:1044C000B0F5803F10D0B0F5A02F12D0286820F4AE
:1044D00080302860286820F4802028606068E0B17F
:1044E000FFF7BAF8064614E0286840F480302860E8
:1044F000F4E7286840F480202860286840F4803081
:104500002860EBE7FFF7A8F8801B642801D9032097
:10451000C8E728688003F5D50DE0FFF79DF806464B
:1045200006E0FFF799F8801B642801D90320B9E75A
:1045300028688003F5D42078BA4F80074FF000092F
:1045400048D5B748001D016811F00C0F08D000686D
:10455000C0F38100022813D1D8F8000040020FD424
:104560002868800704D5E068012801D0012099E778
:104570002868216920F0F80040EAC100286029E09D
:10458000E068B8B101203860FFF766F8064606E03B
:10459000FFF762F8801B022801D9032082E7286810
:1045A0008007F5D52868216920F0F80040EAC100AD
:1045B00028600FE0C7F80090FFF74EF8064606E0C7
:1045C000FFF74AF8801B022801D903206AE7286810
:1045D0008007F5D42078000729D5DFF844A2924857
:1045E00061690AF1700A89B101210160FFF734F8AD
:1045F000064606E0FFF730F8801B022801D90320A9
:1046000050E7DAF800008007F4D510E0C0F8009019
:10461000FFF722F8064606E0FFF71EF8801B022887
:1046200001D903203EE7DAF800008007F4D42078AF
:10463000400778D54FF0000A79483C300068C00048
:104640000BD477483C30016841F08051016000682C
:1046500000F0805000904FF0010ADFF8D0B1DBF895
:104660000000C00514D4DBF8000040F48070CBF8E3
:104670000000FEF7F1FF064606E0FEF7EDFF801BA7
:10468000022801D903200DE7DBF80000C005F4D5AE
:10469000634EA0686C3601280FD0052812D0306810
:1046A00020F001003060306820F004003060A06825
:1046B000F8B1FEF7D1FF834617E0306840F0010003
:1046C0003060F4E7306840F004003060306840F05B
:1046D00001003060EBE7FEF7BFFFA0EB0B0141F2FA
:1046E0008830814201D90320DCE630688007F2D5AA
:1046F00010E0FEF7B1FF834609E0FEF7ADFFA0EB47
:104700000B0141F28830814201D90320CAE63068AA
:104710008007F2D4BAF1010F05D141483C3001685D
:1047200021F080510160A069C0B33D49091D0968AD
:104730004FF0FF36C1F38101022946D0022805D08F
:10474000C7F86090FEF788FF04463AE0C7F860902B
:10475000FEF782FF814607E0FEF77EFFA0EB09002F
:10476000022801D903209DE628688001F4D4D4E909
:1047700007010843616AA26A890106EB520241EA15
:104780000241084394F82C1040EA0160C8F8000088
:1047900001203866FEF760FF044607E03DE0FEF7C3
:1047A0005BFF001B022801D903207BE628688001FB
:1047B000F5D532E0FEF750FF001B022801D9032097
:1047C00070E628688001F5D427E0012823D0D8F8C6
:1047D0000000E26900F4800191421AD1226A00F0DF
:1047E0003F01914215D147F6C071626A0140B1EBB9
:1047F000821F0ED1A26A00F4403106EB5202B1EBE7
:10480000024F06D194F82C1000F07060B0EB016FED
:1048100003D0012046E6012044E6002042E60000E5
:104820000438024000004742800E474200700040BA
:1048300070B50446002C09D0606A002540B125619E
:104840006561A56294F8510040B10CE0012070BD93
:104850006068B0F5827FF4D0E561F2E784F85050EB
:10486000204600F045F8022084F8510020680168D5
:1048700021F040010160A088218900F4827001F4D8
:1048800004410843A18901F400610843217C01F03F
:1048900002010843217D01F001010843218B01F44D
:1048A00000710843217F01F03801084394F820107B
:1048B00001F080010843218D01F400510843216873
:1048C0000860A069042101EA104094F8241001F066
:1048D00010010843216848602068C16921F4006123
:1048E000C1616565012084F85100002070BD0000A1
:1048F000F0B587B00446142102A8FCF7D2FB1C498E
:104900002068884232D100271A48016841F480515A
:104910000160006800F48050019016481438016866
:1049200041F002010160016801F00201019101689A
:1049300041F001010160006800F0010001901820C1
:1049400002900226039604970325059505240694F4
:1049500002A90948FEF790FD802002900396049773
:104960000595069402A90548FEF786FD07B0F0BD3F
:104970000030014044380240000402400000024080
:104980002DE9F84F04460A9E8A4693461F460125A4
:104990004FF0000894F8500001280ED0012084F850
:1049A0005000FEF759FE814694F8510061680128D5
:1049B0000DD0B1F5827F07D102E00220BDE8F88F6B
:1049C000A16809B9042802D04FF00208C3E0BAF187
:1049D000000F28D0BBF1000F25D0380023D094F869
:1049E0005100042802D0052084F8510000206065A1
:1049F000C4F838B0E787A787C4F830A0E786A78651
:104A00002064606420680168490603D4016841F0AD
:104A100040010160E068B0F5006F07D06068E8B35E
:104A2000012F48D07DE04FF0010894E0606808B1A4
:104A3000012F39D1206B21680088C860206B801C51
:104A40002063E08E401EE0862EE0206881688907A2
:104A50000DD5E18E59B1012D09D1216B0988C160B5
:104A6000206B801C2063E08E401EE08600252068BD
:104A70008168C9070BD0E18F49B1C068A16B08807C
:104A8000A06B801CA063E08F401EE0870125FEF72D
:104A9000E3FDA0EB0900B04206D300E00BE0701C80
:104AA00002D04FF0030856E0E08E0028CDD1E08F11
:104AB0000028CAD13BE0206B216800780873206B86
:104AC000401C2063E08E401EE0862AE0206881685A
:104AD00089070DD5E18E59B1012D09D1216B0978D6
:104AE0000173206B401C2063E08E401EE086002591
:104AF00020688168C9070BD0E18F49B1C068A16BFC
:104B00000870A06B401CA063E08F401EE087012569
:104B1000FEF7A2FDA0EB0900B04201D3701C11D139
:104B200086B1E08E0028D1D1E08F0028CED14A4650
:104B30003146204602F034FD38B14FF00108202004
:104B4000606508E04FF0030805E0A06818B9206828
:104B5000C16880680090012050346070002020708F
:104B600040462BE77047704770B590F83C20012A0B
:104B700031D0012680F83C60022280F83D20026896
:104B80005468936824F070050C682C435460134CEF
:104B90000268A24214D0B2F1804F11D0104CA24250
:104BA0000ED0104CA2420BD00F4CA24208D00F4C9A
:104BB000A24205D00E4CA24202D00E4CA24204D119
:104BC00023F080034968194391603C30467000210E
:104BD0000170002070BD022070BD00000000014087
:104BE0000004004000080040000C004000040140A8
:104BF000004001400018004010B50446002C03D0CE
:104C000094F83D0010B107E0012010BD002084F8A9
:104C10003C00204600F016F8022084F83D00211DDB
:104C2000206802F0BFFD01203D3460726070A0700A
:104C3000E07020716071A071E0712072207000201E
:104C400010BD000008B500680D49884209D10D4823
:104C5000016841F004010160006800F00400009068
:104C600008BD09498842FBD10648001D016841F48E
:104C700000310160006800F40030009008BD0000C1
:104C800000080040403802400044014090F83D10C8
:104C9000012901D001207047022180F83D100168F0
:104CA000CA6842F00102CA6000681449884214D000
:104CB000B0F1804F11D0124988420ED0114988427C
:104CC0000BD01149884208D01049884205D01049BC
:104CD000884202D00F49884209D1816801F007015A
:104CE000062908D0016841F00101016003E0016874
:104CF00041F0010101600020704700000000014008
:104D00000004004000080040000C00400004014086
:104D1000004001400018004070B50446002594F89A
:104D20003C00012817D0012684F83C60022084F85A
:104D30003D002068826822F0770222F47F42826080
:104D40000868502838D00DDC202853D005DC90B3FB
:104D5000102811D14EE0022070BD30284AD04028E2
:104D60000AD13DE0602831D070280CD0B0F5805FCA
:104D700003D0B0F5005F12D001253C3466700020EE
:104D80002070284670BDCB68D1E90121206802F06F
:104D90007CFD2068816841F077018160EDE7CB6898
:104DA000D1E90121206802F070FD2068816841F49A
:104DB00080418160E1E71DE0CA684968206802F02F
:104DC00047FE5021206802F06AFDD6E7CA684968AC
:104DD000206802F04EFE6021206802F060FDCCE702
:104DE000CA684968206802F033FE4021206802F05A
:104DF00056FDC2E722680146104602F050FDBCE7AE
:104E0000704770B50446206801694FF00005C9433A
:104E1000890716D4C168C943890712D4E91E016104
:104E20000120207720688069800703D02046FFF7A3
:104E3000E7FF05E0204600F0DFF8204600F06FF9BC
:104E4000257720680169C943490718D4C168C94357
:104E5000490714D46FF00401016102202077206813
:104E6000806910F4407F03D02046FFF7C9FF05E0BA
:104E7000204600F0C1F8204600F051F9257720685F
:104E80000169C943090717D4C168C943090713D485
:104E90006FF008010161042020772068C069800755
:104EA00003D02046FFF7ACFF05E0204600F0A4F851
:104EB000204600F034F9257720680169C943C90606
:104EC00018D4C168C943C90614D46FF01001016138
:104ED000082020772068C06910F4407F03D0204666
:104EE000FFF78EFF05E0204600F086F8204600F030
:104EF00016F9257720680169C943C90708D1C16837
:104F0000C943C90704D1891E0161204600F076F922
:104F100020680169C943090609D4C168C943090663
:104F200005D46FF0800101612046FFF71BFE206869
:104F30000169C943490609D4C168C943490605D472
:104F40006FF040010161204600F05FF920680169BF
:104F5000C94389060BD4C168C943890607D46FF0D9
:104F6000200101612046BDE87040FFF7FCBD70BD27
:104F700030B587B00446142102A8FCF792F8194D09
:104F800020681949022201230324A84213D108688A
:104F900040F008000860086800F008000190500325
:104FA0000290039204930594069202A90F48FEF71B
:104FB00063FA07B030BD0E4DA842FAD1086840F040
:104FC00020000860086800F0200001904020029056
:104FD000039204930592069402A90648FEF74CFA40
:104FE000E7E700000008004030380240000C0240B3
:104FF0000044014000140240704770B504460D465D
:10500000002694F83C0001280FD0012084F83C00D1
:105010006AB1042A1FD0082A32D00C2A44D00126B3
:10502000002084F83C00304670BD022070BD294647
:10503000206802F03DFC2068816941F0080181612F
:105040002068816921F004018161206881692A69F1
:1050500011438161E4E72946206802F05DFC206885
:10506000816941F4006181612068816921F4806176
:105070008161206881692A6941EA02218161CFE763
:105080002946206802F082FC2068C16941F00801CD
:10509000C1612068C16921F00401C1612068C16952
:1050A0002A691143C161BBE72946206802F0A6FCCA
:1050B0002068C16941F40061C1612068C16921F4BF
:1050C0008061C1612068C1692A6941EA0221C16128
:1050D000A6E710B50446002C03D094F83D0010B1AB
:1050E00007E0012010BD002084F83C00204600F0BD
:1050F00015F8022084F83D00211D206802F052FBC3
:1051000001203D3460726070A070E07020716071A9
:10511000A071E07120722070002010BD70477047B0
:1051200010B50446002909D004290AD008290BD05B
:1051300094F8410001280AD0012010BD94F83E00E7
:10514000F8E794F83F00F5E794F84000F2E7022012
:10515000A9B3042937D0082938D084F841000122A6
:10516000206802F085FB1E4920681E4A884201D053
:10517000904203D1436C43F4004343642068884267
:1051800013D0B0F1804F10D0174988420DD0174985
:1051900088420AD01649884207D0904205D0154966
:1051A000884202D01449884213D1816801F0070176
:1051B000062912D0016841F0010101600DE0FFE70E
:1051C00084F83E00CBE784F83F00C8E784F840004D
:1051D000C5E7016841F001010160002010BD000039
:1051E00000000140000401400004004000080040AD
:1051F000000C004000400140001800400068B0F181
:10520000804F01D1FEF72EBA7047704710B50446A3
:10521000104A2068904203D1204604F0A5FD05E025
:105220000D4A904202D1204604F062FD0120206325
:105230002068C16841F01001C1602068416941F0F7
:1052400040014161A06B0068016841F0010101600B
:1052500010BD0000004800400010014070470000F1
:10526000F8B5044622681068D168536900F00F064B
:10527000002E08D1850606D58D0604D52046BDE84A
:10528000F84002F044BC0025002E66D003F0010671
:1052900001F49077374360D0C20705D0CA0503D523
:1052A000226C42F001022264420705D5DA0703D0DE
:1052B000226C42F002022264820705D5DA0703D08D
:1052C000226C42F004022264020707D501F020029A
:1052D000324303D0226C42F008022264226C002A7E
:1052E00031D0800604D5880602D5204602F00FFC96
:1052F00020684069C0F38010216C090700D438B3DE
:10530000204602F0D0FB2068406940061CD520688A
:10531000143050E8001F21F0400140E80012002A3C
:10532000F5D1A06B60B157490165A06BFDF71FFF78
:10533000002808D0A06B016D01B0BDE8F04008471F
:105340002046FFF78BFFF8BD2046FFF787FFF8BD2B
:105350002046FFF783FF2564F8BD236B012B7ED128
:10536000C3067CD5CB067AD510685068009050698A
:105370004FF02003400643D5A16B0868406880B217
:105380000028E9D0A28D8242E6D9E085C869B0F54F
:10539000807F2DD020680C3050E8001F21F48071F0
:1053A00040E80012002AF5D12068143050E8001FB0
:1053B00021F0010140E80012002AF5D120681430E4
:1053C00050E8001F21F0400140E80012002AF5D10A
:1053D00084F83E30256320680C3050E8001F21F02F
:1053E000100140E80012002AF5D1A06BFDF778FE0D
:1053F000A08DE18D401A81B22046FFF707FFF8BD6E
:10540000A08DE18D401A81B2E08D0028F7D00029EF
:10541000F5D020680C3050E8002F22F4907240E85C
:105420000026002EF5D12068143050E8002F22F01D
:10543000010240E80026002EF5D184F83E302563B5
:1054400020680C3050E8002F22F0100240E80023C2
:10545000002BF5D12046FFF7D9FEF8BDFFE7020685
:1054600006D50A0604D52046BDE8F84002F03CBC4B
:105470004006F2D54806F0D52046BDE8F84002F0D7
:1054800039BB0000977A000870B50446002C04D0A0
:1054900094F83D00002510B106E0012070BD84F8AD
:1054A0003C50204600F022F8242084F83D0020687B
:1054B000C16821F40051C160204602F08BFB2068D6
:1054C000016921F4904101612068416921F02A01BC
:1054D00041612068C16841F40051C1602564202009
:1054E00084F83D0084F83E00002070BD2DE9F04FA7
:1054F00087B00446142102A8FBF7D3FD5E4A0225BB
:1055000021685E480026AF064FF003094FF0070BF5
:105510004FF4807A4FF4806891426AD15749143130
:105520000A6842F010020A60096801F01001019156
:10553000016841F002010160016801F0020101917E
:10554000016841F001010160006800F00100019074
:105550008020029003950496CDF81490CDF818B0F1
:1055600002A94748FDF788FF280202900395049698
:10557000CDF81490CDF818B002A94248FDF77CFF91
:10558000424D414828606F60AE60EE60C5F8108003
:105590006E61AE61C5F81CA02E626E622846FDF7F2
:1055A000E1FE08B1FDF74BF9A563AC633648374D12
:1055B0007830603528606F604020A860EE60C5F8E4
:1055C00010806E61AE61EE612E626E622846FDF75C
:1055D000C9FE08B1FDF733F96563AC63002205210C
:1055E0002520FEF7D7F82520FEF7C6F807B0BDE85E
:1055F000F08F274A9142F9D1204910310A6842F4CC
:1056000080220A60096801F480210191016841F05B
:1056100004010160006800F0040001904FF4406054
:10562000029003950496CDF81490CDF818B002A915
:105630001848FDF721FF154D1748C03528606F60E9
:10564000AE60EE60C5F810806E61AE61C5F81CA05A
:105650002E626E622846FDF785FE08B1FDF7EFF871
:10566000A563AC63002205212720FEF793F82720CD
:10567000FEF782F8BAE7000000100140303802401F
:10568000000402400000024040640240681700200D
:105690000048004000080240286002407047704700
:1056A00010B5FDF7D9FF4FF08041496A00EB400289
:1056B000C2EBC01001EBC00010BDFEE702460021A6
:1056C000014804F08ABB00009816002010B512496A
:1056D000124800F083FC11480F49203000F07EFC96
:1056E0000E480D49403000F079FC0C480C4A02216C
:1056F000603001F025F80A4A0848903ABDE81040A9
:10570000A2F190019FED071ADFED070AB2EE040A3D
:10571000B03001F031BA0000D8030020380D00206D
:1057200004050020002474496F12833A2DED048B88
:1057300084B000200190FFF7C9FF504800F1400AF3
:1057400020309FED4F9AA0F16804039004F12800E7
:1057500004F1340B04F1F80604F52077DFF8248116
:105760009FED498ADFED498A4FF00509484D0290C7
:1057700005F076FE01904648FBF702FF95ED010A21
:105780003E4800F03DFC84ED0D0A95ED030A5046BD
:1057900000F036FC84ED0F0A95ED020A039800F044
:1057A0002FFC84ED0E0AD5E905122869C4E90B1215
:1057B000A0623248B0EE490A5A46B030029901F070
:1057C00039FAD7E905123869C4E90812E06196EDA3
:1057D000680A20EE080A84ED000A96ED660A20EEBB
:1057E000080A84ED010AD6ED670A60EE880AC4ED66
:1057F000030AD4ED100A70EE600A10EE900A4045DC
:1058000005D9B4F84400401CA4F8440009E010EEA7
:10581000900A2049884204DDB4F84400401EA4F8F0
:10582000440084ED100AB4F9440000EE900AF8EE4A
:10583000E00A00EEA80A84ED020A94ED0A0A20EEBE
:10584000080A84ED040A94ED0C0A20EE080A84ED9F
:10585000050A94ED0B0A20EE080A84ED060A019869
:10586000B0FBF9F109FB110018B995ED070AFBF738
:105870009BFF012101A805F0E6FD79E7380D002026
:105880006F12833A000034C3E12E65420000B44336
:10589000A80F002000003443F0B500230A2530266D
:1058A0003727002412E0B5EB107F04D906EB107CFB
:1058B00001F813C003E007EB107C01F813C00001EE
:1058C00001EB430C8CF801405B1CDBB29342EAD342
:1058D000F0BD2DE9F04104460D4616461F46042052
:1058E000208008206080002D00D017B9FE2084F8A9
:1058F000C40025716671A77100202062012204F1A5
:105900002003114604F11800FAF73CFE2088784382
:10591000FBF780FAE06021887943FBF7C2FB20881F
:105920006843FBF777FAC4F8C80021886943FBF79E
:10593000B8FB2179012204F12C00D4F8C830FAF721
:1059400021FE20886843FBF765FAC4F8CC00218863
:105950006943FBF7A6FB2179012204F13400D4F856
:10596000CC30FAF70FFE20887843FBF753FAC4F8DF
:10597000D40021887943FBF794FBA179012204F13B
:105980004400D4F8D430FAF7FDFD607988B320885C
:105990007043FBF73FFA206121887143FBF781FBDD
:1059A00020887043FBF736FAC4F8D0002188714391
:1059B000FBF777FB6179012204F13C00D4F8D03089
:1059C000FAF7E0FD218805FB06F006464843FBF7A1
:1059D00021FA0246C4F8D800218810467143FBF72B
:1059E00060FB6279217904F14C00D4F8D830FAF7E1
:1059F000C9FD208805FB05F67043FBF70BFAC4F8D8
:105A0000DC0021887143FBF74CFB217904F1540041
:105A10000A46D4F8DC30FAF7B5FD20887043FBF76E
:105A2000F9F9C4F8E00021887143FBF73AFB2179CA
:105A300004F15C000A46D4F8E030FAF7A3FD2188AF
:105A400007FB05F080464843FBF7E4F9C4F8E4009F
:105A5000218801FB08F1FBF724FB2279A17904F1ED
:105A60006400D4F8E430FAF78DFD208805FB07F8D0
:105A700000FB08F0FBF7CEF9C4F8E800218801FB31
:105A800008F1FBF70EFBA279217904F16C00D4F840
:105A9000E830FAF777FD20887043FBF7BBF9C4F8CC
:105AA000EC0021887143FBF7FCFA217904F17400C2
:105AB0000A46D4F8EC30FAF765FD20887043FBF70E
:105AC000A9F9C4F8F00021887143FBF7EAFA2179BB
:105AD00004F17C000A46D4F8F030FAF753FD208830
